:020000040800F2
:1000000038050020290200083702000839020008DC
:100010003B0200083D0200083F020008000000000B
:100020000000000000000000000000004102000885
:1000300043020008000000004502000847020008D3
:100040004902000849020008490200084902000864
:100050004902000849020008490200084902000854
:100060004902000849020008490200084902000844
:100070004902000849020008490200084902000834
:100080004902000849020008490200084902000824
:100090004902000849020008490200084902000814
:1000A0004902000849020008490200084902000804
:1000B00049020008490200084902000849020008F4
:1000C00049020008490200084902000849020008E4
:1000D00049020008F9060008490200084902000820
:1000E00049020008490200084902000849020008C4
:1000F00049020008490200084902000849020008B4
:1001000049020008490200084902000849020008A3
:100110004902000849020008490200084902000893
:100120004902000849020008490200084902000883
:100130004902000849020008490200084902000873
:100140004902000849020008490200084902000863
:100150004902000849020008490200084902000853
:100160004902000849020008490200084902000843
:100170004902000849020008490200084902000833
:10018000490200084902000800F002F800F03CF8BB
:100190000AA090E8000C82448344AAF10107DA45E2
:1001A00001D100F031F8AFF2090EBAE80F0013F0F8
:1001B000010F18BFFB1A43F001031847EC080000B9
:1001C0000C090000103A24BF78C878C1FAD8520749
:1001D00024BF30C830C144BF04680C6070470000C1
:1001E0000023002400250026103A28BF78C1FBD840
:1001F000520728BF30C148BF0B6070471FB500F0E1
:100200004DFC1FBD10B510BD00F070F81146FFF792
:10021000F5FF00F01DFB00F0A2F803B4FFF7F2FFBA
:1002200003BC00F0A9FA00000B48016841F470011A
:1002300001600A480047FEE7FEE7FEE7FEE7FEE74B
:10024000FEE7FEE7FEE7FEE7FEE70000044805499B
:10025000034A054B7047000088ED00E08901000863
:1002600038010020380500203801002070470000C8
:100270000FB4044910B503AA029800F009F810BCA5
:100280005DF814FB0400002070477047704770470A
:10029000074B70B50D467B4400F011F80446284624
:1002A00000F020F810B14FF0FF3070BD204670BD57
:1002B0009B05000001694A1C02610878704700B57F
:1002C0008FB0CDE901310021059105497944CDE98F
:1002D00003101146684600F02EF80FB000BD000074
:1002E000E5FFFFFF007B00F080007047754600F0DF
:1002F0003DF8AE4605006946534620F007008546A6
:1003000018B020B5FFF7A2FFBDE820404FF000066F
:100310004FF000074FF000084FF0000B21F00701ED
:10032000AC46ACE8C009ACE8C009ACE8C009ACE830
:10033000C0098D4670472DE9F04106460024D6E9F4
:100340000170F5688046304603E04146B847641CBA
:100350003046A8470028F8D12046BDE8F081044681
:10036000AFF300802046FFF758FF000000487047B9
:10037000D400002030B5CC1000F1200353F8243015
:100380004C07E50E0F24AC40A343CD1000F1200430
:1003900044F82530CC1000F1200353F824304C07EA
:1003A000E40E02FA04F42343CD1000F1200444F8D3
:1003B000253030BD2DE9F0470C46DDE90867002106
:1003C00000258C4600BF60E04FF0010808FA01F5F7
:1003D00004EA050CAC4557D1D0F800804FEA410A39
:1003E0004FF0030909FA0AF928EA0908C0F8008061
:1003F000D0F800804FEA410902FA09F948EA0908F1
:10040000C0F80080012A01D0022A27D1D0F8088044
:100410004FEA410A4FF0030909FA0AF928EA0908E4
:10042000C0F80880D0F808804FEA410906FA09F9B7
:1004300048EA0908C0F80880D0F804904FF0010895
:1004400008FA01F829EA0809C0F80490D0F80480F5
:1004500003FA01F948EA0908C0F80480D0F80C80D2
:100460004FEA410A4FF0030909FA0AF928EA090894
:10047000C0F80C80D0F80C804FEA410907FA09F95E
:1004800048EA0908C0F80C80491C10299CD3BDE833
:10049000F08700001CB50B48006840F020000949B7
:1004A00008600120032100230246CDE90010490223
:1004B0000548FFF77FFF0120044908600449C1F89F
:1004C000A8021CBD3038024000140240A4824242FF
:1004D000008042422DE9F0410746884614461D46F9
:1004E000284600F033F8C5F1040007FA00F60F20A3
:1004F000284100EA0800064306F00F06E21704EB65
:10050000D2625211920002F1E022D2F8002121467B
:10051000E31704EBD3635B11A4EB431C012303FA41
:100520000CF31A432046E31704EBD3635B119B00E3
:1005300003F1E023C3F800210348005D40EA061000
:1005400001490855BDE8F08100E400E001460723B9
:1005500023EA01021202054B18684FF6FF03184008
:10056000034B18431043014B186070470CED00E03B
:100570000000FA054A0A52020243014B1A60704712
:1005800008ED00E0F0B504460D4616461F46144837
:10059000006840F00100124908600020104908314D
:1005A00008600F4800680F4908400D4908600E4870
:1005B000091D0860081F006820F48020091F0860DA
:1005C000002007490C3108603B4632462946204648
:1005D00000F00CF800210846FFF7CCFFF0BD00004A
:1005E00000380240FFFFF6FE10300024F0B504464C
:1005F0000D46002100203D4E366846F480363B4FC4
:100600003E6001E04E1CB1B2384E366806F400364A
:100610001EB941F6FF76B142F4DB41F6FF76B142F6
:1006200001D1012060E0314E4036366846F08056F8
:100630002E4F40373E602E4E366846F440462C4FD3
:100640003E602A4E0836366846F41446274F08376F
:100650003E60264E366826F08076244F3E6045EA9E
:1006600084160127C7EB520746EA074646EA0366A7
:1006700046F480061D4F3F1D3E603E1F366846F023
:1006800080763F1F3E6000BF184E366806F0007649
:10069000002EF9D0174E366846F48076154F3E602E
:1006A0003E46366846F400763E603E46366846F47E
:1006B00080663E603E46366846F005063E600B4E5C
:1006C0000836366826F00306084F08373E603E4677
:1006D000366846F002063E6000BF044E08363668B3
:1006E00006F00C06082EF8D1F0BD000000380240DC
:1006F00000700040003C02401C49098801F02001C4
:1007000009B31A498988C8B21949098801F4004116
:10071000C9B91749098801F4804161B10A2803D099
:100720000021134A118020E01149098841F4004159
:100730000F4A118019E00D2806D10D49098841F4AE
:1007400080410B4A118010E009490988C1F30D016D
:10075000084A505406490988491C054A1180114627
:100760000988C72901DD0021118070470010014070
:10077000080000200C000020014600BF7047000068
:100780004FF0E021096921F004014FF0E0221161EE
:10079000C21700EB5272C2F3C702074B1A70194618
:1007A000097801EB4102C2EBC1114FF6FF7202EA78
:1007B000C101024A118070470000002002000020A1
:1007C00070B504464FF4077094FBF0F0C6B24FF4D6
:1007D000077094FBF0F100FB114085B205E04FF487
:1007E000077000F009F8701EC6B2002EF7D115B1DF
:1007F000284600F001F870BD01460D4A12884A43B0
:100800004FF0E0235A6100229A6101221A6100BF71
:100810004FF0E022106900F001021AB100F48032BA
:10082000002AF5D000224FF0E0231A619A61704748
:100830000200002000BF054A128802F04002002A90
:10084000F9D0C2B2014B9A807047000000100140FD
:1008500000240723022208214FF4A870FFF792FE1C
:10086000A820FFF78DFF4FF4E131542000F096F8F7
:10087000FFF710FE4AE02648008800F40040E0B18F
:100880002348067823A0FFF7F3FC00250CE0264858
:10089000405D2649888000BF2448008800F0400061
:1008A0000028F9D0681CC5B2B542F0DB20A0FFF7E4
:1008B000DFFC00201649088028E0601C84B241F269
:1008C000883094FBF0F100FB114028B91AA0FFF723
:1008D000CFFC24A0FFF7CCFCC82094FBF0F100FB78
:1008E000114010B925A0FFF7C3FC1E2094FBF0F1C6
:1008F00000FB114038B92848006808B9012000E021
:100900000020254908600A20FFF75AFFB3E70000DE
:10091000080000200D0AC4FAB7A2CBCDB5C4CFFBA6
:10092000CFA2CEAA3A0D0A000C0000200010014010
:100930000D0A0D0A000000000D0A414C49454E54B5
:10094000454B20CCBDCBF7D5DF53544D3332463425
:100950003037BFAAB7A2B0E520B4AEBFDACAB5D16E
:10096000E90D0A00D5FDB5E3D4ADD7D340414C49DC
:10097000454E54454B0D0A0D0A0D0A00C7EBCAE45B
:10098000C8EBCAFDBEDD2CD2D4BBD8B3B5BCFCBD10
:10099000E1CAF80D0A000000A4824242F0B52DED34
:1009A000028B83B005460E46384905FB01F000EE88
:1009B000100AF8EE400A300100EE100AB8EE400AC4
:1009C00080EE801AB0EE418ABCEEC80A10EE100A22
:1009D00084B200EE104AB8EE400A38EE400AF3EE58
:1009E000000A20EE200ABCEEC00A10EE107A4FF684
:1009F000FF7000EA0414E01984B22548006840F052
:100A000001002349086022481430006840F01000BB
:100A10001F49143108600120022100230A46CDE954
:100A200000104FF4C0611B48FFF7C4FC07220921E6
:100A30001848FFF79FFC07220A211648FFF79AFC87
:100A400015480481808920F40040134988810846B4
:100A5000808940F0080088810846808940F00400C1
:100A600088810846808940F0200088810223252261
:100A700003210846FFF72EFD0748808940F4005007
:100A80000549888103B0BDEC028BF0BD40420F00E8
:100A90003038024000000240001001404FF040702A
:100AA000E1EE100A70470000C80A000800000020AC
:100AB0000C000000C4010008D40A00080C0000204B
:100AC0002C050000E001000800000000000000000C
:040AD0000000000022
:040000050800018965
:00000001FF
